{
  "_format": "hh-sol-artifact-1",
  "contractName": "Box",
  "sourceName": "contracts/Box.sol",
  "abi": [
    {
      "inputs": [],
      "stateMutability": "nonpayable",
      "type": "constructor"
    },
    {
      "inputs": [],
      "name": "getMessage",
      "outputs": [
        {
          "internalType": "string",
          "name": "",
          "type": "string"
        }
      ],
      "stateMutability": "view",
      "type": "function"
    },
    {
      "inputs": [],
      "name": "message",
      "outputs": [
        {
          "internalType": "string",
          "name": "",
          "type": "string"
        }
      ],
      "stateMutability": "view",
      "type": "function"
    },
    {
      "inputs": [
        {
          "internalType": "string",
          "name": "_message",
          "type": "string"
        }
      ],
      "name": "setMessage",
      "outputs": [],
      "stateMutability": "nonpayable",
      "type": "function"
    }
  ],
  "bytecode": "0x60806040526040518060400160405280600181526020017f20000000000000000000000000000000000000000000000000000000000000008152506000908051906020019061004f9291906100ae565b5034801561005c57600080fd5b506040518060400160405280600f81526020017f44656661756c74206d6573736167650000000000000000000000000000000000815250600090805190602001906100a89291906100ae565b506101b2565b8280546100ba90610151565b90600052602060002090601f0160209004810192826100dc5760008555610123565b82601f106100f557805160ff1916838001178555610123565b82800160010185558215610123579182015b82811115610122578251825591602001919060010190610107565b5b5090506101309190610134565b5090565b5b8082111561014d576000816000905550600101610135565b5090565b6000600282049050600182168061016957607f821691505b6020821081141561017d5761017c610183565b5b50919050565b7f4e487b7100000000000000000000000000000000000000000000000000000000600052602260045260246000fd5b610515806101c16000396000f3fe608060405234801561001057600080fd5b50600436106100415760003560e01c8063368b877214610046578063ce6d41de14610062578063e21f37ce14610080575b600080fd5b610060600480360381019061005b91906102e3565b61009e565b005b61006a6100b8565b604051610077919061035d565b60405180910390f35b61008861014a565b604051610095919061035d565b60405180910390f35b80600090805190602001906100b49291906101d8565b5050565b6060600080546100c79061043e565b80601f01602080910402602001604051908101604052809291908181526020018280546100f39061043e565b80156101405780601f1061011557610100808354040283529160200191610140565b820191906000526020600020905b81548152906001019060200180831161012357829003601f168201915b5050505050905090565b600080546101579061043e565b80601f01602080910402602001604051908101604052809291908181526020018280546101839061043e565b80156101d05780601f106101a5576101008083540402835291602001916101d0565b820191906000526020600020905b8154815290600101906020018083116101b357829003601f168201915b505050505081565b8280546101e49061043e565b90600052602060002090601f016020900481019282610206576000855561024d565b82601f1061021f57805160ff191683800117855561024d565b8280016001018555821561024d579182015b8281111561024c578251825591602001919060010190610231565b5b50905061025a919061025e565b5090565b5b8082111561027757600081600090555060010161025f565b5090565b600061028e610289846103b0565b61037f565b9050828152602081018484840111156102a657600080fd5b6102b18482856103fc565b509392505050565b600082601f8301126102ca57600080fd5b81356102da84826020860161027b565b91505092915050565b6000602082840312156102f557600080fd5b600082013567ffffffffffffffff81111561030f57600080fd5b61031b848285016102b9565b91505092915050565b600061032f826103e0565b61033981856103eb565b935061034981856020860161040b565b610352816104ce565b840191505092915050565b600060208201905081810360008301526103778184610324565b905092915050565b6000604051905081810181811067ffffffffffffffff821117156103a6576103a561049f565b5b8060405250919050565b600067ffffffffffffffff8211156103cb576103ca61049f565b5b601f19601f8301169050602081019050919050565b600081519050919050565b600082825260208201905092915050565b82818337600083830152505050565b60005b8381101561042957808201518184015260208101905061040e565b83811115610438576000848401525b50505050565b6000600282049050600182168061045657607f821691505b6020821081141561046a57610469610470565b5b50919050565b7f4e487b7100000000000000000000000000000000000000000000000000000000600052602260045260246000fd5b7f4e487b7100000000000000000000000000000000000000000000000000000000600052604160045260246000fd5b6000601f19601f830116905091905056fea26469706673582212201bd9515ffdbbb930511995907d1fe491183fada49f6bfe1973af90171834282964736f6c63430008000033",
  "linkReferences": {},
  "deployedLinkReferences": {}
}