{
  "_format": "hh-sol-artifact-1",
  "contractName": "PrivateBox",
  "sourceName": "contracts/PrivateBox.sol",
  "abi": [
    {
      "inputs": [],
      "stateMutability": "nonpayable",
      "type": "constructor"
    },
    {
      "inputs": [],
      "name": "_message",
      "outputs": [
        {
          "internalType": "string",
          "name": "",
          "type": "string"
        }
      ],
      "stateMutability": "view",
      "type": "function"
    },
    {
      "inputs": [],
      "name": "_owner",
      "outputs": [
        {
          "internalType": "address",
          "name": "",
          "type": "address"
        }
      ],
      "stateMutability": "view",
      "type": "function"
    },
    {
      "inputs": [],
      "name": "getMessage",
      "outputs": [
        {
          "internalType": "string",
          "name": "",
          "type": "string"
        }
      ],
      "stateMutability": "view",
      "type": "function"
    },
    {
      "inputs": [
        {
          "internalType": "string",
          "name": "message",
          "type": "string"
        }
      ],
      "name": "setMessage",
      "outputs": [],
      "stateMutability": "nonpayable",
      "type": "function"
    }
  ],
  "bytecode": "0x60806040526040518060400160405280600181526020017f20000000000000000000000000000000000000000000000000000000000000008152506000908051906020019061004f9291906100d2565b5034801561005c57600080fd5b506040518060600160405280602d81526020016108bb602d91396000908051906020019061008b9291906100d2565b5033600160006101000a81548173ffffffffffffffffffffffffffffffffffffffff021916908373ffffffffffffffffffffffffffffffffffffffff1602179055506101d6565b8280546100de90610175565b90600052602060002090601f0160209004810192826101005760008555610147565b82601f1061011957805160ff1916838001178555610147565b82800160010185558215610147579182015b8281111561014657825182559160200191906001019061012b565b5b5090506101549190610158565b5090565b5b80821115610171576000816000905550600101610159565b5090565b6000600282049050600182168061018d57607f821691505b602082108114156101a1576101a06101a7565b5b50919050565b7f4e487b7100000000000000000000000000000000000000000000000000000000600052602260045260246000fd5b6106d6806101e56000396000f3fe608060405234801561001057600080fd5b506004361061004c5760003560e01c80630adde0eb14610051578063368b87721461006f578063b2bdfa7b1461008b578063ce6d41de146100a9575b600080fd5b6100596100c7565b60405161006691906104cc565b60405180910390f35b610089600480360381019061008491906103c2565b610155565b005b6100936101ff565b6040516100a091906104b1565b60405180910390f35b6100b1610225565b6040516100be91906104cc565b60405180910390f35b600080546100d4906105ff565b80601f0160208091040260200160405190810160405280929190818152602001828054610100906105ff565b801561014d5780601f106101225761010080835404028352916020019161014d565b820191906000526020600020905b81548152906001019060200180831161013057829003601f168201915b505050505081565b600160009054906101000a900473ffffffffffffffffffffffffffffffffffffffff1673ffffffffffffffffffffffffffffffffffffffff163373ffffffffffffffffffffffffffffffffffffffff16146101e5576040517f08c379a00000000000000000000000000000000000000000000000000000000081526004016101dc906104ee565b60405180910390fd5b80600090805190602001906101fb9291906102b7565b5050565b600160009054906101000a900473ffffffffffffffffffffffffffffffffffffffff1681565b606060008054610234906105ff565b80601f0160208091040260200160405190810160405280929190818152602001828054610260906105ff565b80156102ad5780601f10610282576101008083540402835291602001916102ad565b820191906000526020600020905b81548152906001019060200180831161029057829003601f168201915b5050505050905090565b8280546102c3906105ff565b90600052602060002090601f0160209004810192826102e5576000855561032c565b82601f106102fe57805160ff191683800117855561032c565b8280016001018555821561032c579182015b8281111561032b578251825591602001919060010190610310565b5b509050610339919061033d565b5090565b5b8082111561035657600081600090555060010161033e565b5090565b600061036d6103688461053f565b61050e565b90508281526020810184848401111561038557600080fd5b6103908482856105bd565b509392505050565b600082601f8301126103a957600080fd5b81356103b984826020860161035a565b91505092915050565b6000602082840312156103d457600080fd5b600082013567ffffffffffffffff8111156103ee57600080fd5b6103fa84828501610398565b91505092915050565b61040c8161058b565b82525050565b600061041d8261056f565b610427818561057a565b93506104378185602086016105cc565b6104408161068f565b840191505092915050565b600061045860248361057a565b91507f4f6e6c7920746865206f776e65722063616e2075736520746869732066756e6360008301527f74696f6e000000000000000000000000000000000000000000000000000000006020830152604082019050919050565b60006020820190506104c66000830184610403565b92915050565b600060208201905081810360008301526104e68184610412565b905092915050565b600060208201905081810360008301526105078161044b565b9050919050565b6000604051905081810181811067ffffffffffffffff8211171561053557610534610660565b5b8060405250919050565b600067ffffffffffffffff82111561055a57610559610660565b5b601f19601f8301169050602081019050919050565b600081519050919050565b600082825260208201905092915050565b60006105968261059d565b9050919050565b600073ffffffffffffffffffffffffffffffffffffffff82169050919050565b82818337600083830152505050565b60005b838110156105ea5780820151818401526020810190506105cf565b838111156105f9576000848401525b50505050565b6000600282049050600182168061061757607f821691505b6020821081141561062b5761062a610631565b5b50919050565b7f4e487b7100000000000000000000000000000000000000000000000000000000600052602260045260246000fd5b7f4e487b7100000000000000000000000000000000000000000000000000000000600052604160045260246000fd5b6000601f19601f830116905091905056fea2646970667358221220c9026bdd85232fcef034fa76e17d34fb938157bf2cd1bcb58325880567d1e5ad64736f6c6343000800003354686973206d6573736167652063616e206265206368616e67656420627920746865206f776e6572206f6e6c79",
  "linkReferences": {},
  "deployedLinkReferences": {}
}